{
  "contractName": "Token",
  "abi": [
    {
      "inputs": [
        {
          "internalType": "address",
          "name": "initialOwner",
          "type": "address"
        }
      ],
      "stateMutability": "nonpayable",
      "type": "constructor"
    },
    {
      "inputs": [
        {
          "internalType": "address",
          "name": "sender",
          "type": "address"
        },
        {
          "internalType": "uint256",
          "name": "tokenId",
          "type": "uint256"
        },
        {
          "internalType": "address",
          "name": "owner",
          "type": "address"
        }
      ],
      "name": "ERC721IncorrectOwner",
      "type": "error"
    },
    {
      "inputs": [
        {
          "internalType": "address",
          "name": "operator",
          "type": "address"
        },
        {
          "internalType": "uint256",
          "name": "tokenId",
          "type": "uint256"
        }
      ],
      "name": "ERC721InsufficientApproval",
      "type": "error"
    },
    {
      "inputs": [
        {
          "internalType": "address",
          "name": "approver",
          "type": "address"
        }
      ],
      "name": "ERC721InvalidApprover",
      "type": "error"
    },
    {
      "inputs": [
        {
          "internalType": "address",
          "name": "operator",
          "type": "address"
        }
      ],
      "name": "ERC721InvalidOperator",
      "type": "error"
    },
    {
      "inputs": [
        {
          "internalType": "address",
          "name": "owner",
          "type": "address"
        }
      ],
      "name": "ERC721InvalidOwner",
      "type": "error"
    },
    {
      "inputs": [
        {
          "internalType": "address",
          "name": "receiver",
          "type": "address"
        }
      ],
      "name": "ERC721InvalidReceiver",
      "type": "error"
    },
    {
      "inputs": [
        {
          "internalType": "address",
          "name": "sender",
          "type": "address"
        }
      ],
      "name": "ERC721InvalidSender",
      "type": "error"
    },
    {
      "inputs": [
        {
          "internalType": "uint256",
          "name": "tokenId",
          "type": "uint256"
        }
      ],
      "name": "ERC721NonexistentToken",
      "type": "error"
    },
    {
      "inputs": [
        {
          "internalType": "address",
          "name": "owner",
          "type": "address"
        }
      ],
      "name": "OwnableInvalidOwner",
      "type": "error"
    },
    {
      "inputs": [
        {
          "internalType": "address",
          "name": "account",
          "type": "address"
        }
      ],
      "name": "OwnableUnauthorizedAccount",
      "type": "error"
    },
    {
      "anonymous": false,
      "inputs": [
        {
          "indexed": true,
          "internalType": "address",
          "name": "owner",
          "type": "address"
        },
        {
          "indexed": true,
          "internalType": "address",
          "name": "approved",
          "type": "address"
        },
        {
          "indexed": true,
          "internalType": "uint256",
          "name": "tokenId",
          "type": "uint256"
        }
      ],
      "name": "Approval",
      "type": "event"
    },
    {
      "anonymous": false,
      "inputs": [
        {
          "indexed": true,
          "internalType": "address",
          "name": "owner",
          "type": "address"
        },
        {
          "indexed": true,
          "internalType": "address",
          "name": "operator",
          "type": "address"
        },
        {
          "indexed": false,
          "internalType": "bool",
          "name": "approved",
          "type": "bool"
        }
      ],
      "name": "ApprovalForAll",
      "type": "event"
    },
    {
      "anonymous": false,
      "inputs": [
        {
          "indexed": false,
          "internalType": "uint256",
          "name": "_fromTokenId",
          "type": "uint256"
        },
        {
          "indexed": false,
          "internalType": "uint256",
          "name": "_toTokenId",
          "type": "uint256"
        }
      ],
      "name": "BatchMetadataUpdate",
      "type": "event"
    },
    {
      "anonymous": false,
      "inputs": [
        {
          "indexed": false,
          "internalType": "uint256",
          "name": "_tokenId",
          "type": "uint256"
        }
      ],
      "name": "MetadataUpdate",
      "type": "event"
    },
    {
      "anonymous": false,
      "inputs": [
        {
          "indexed": true,
          "internalType": "uint256",
          "name": "tokenId",
          "type": "uint256"
        },
        {
          "indexed": false,
          "internalType": "uint256",
          "name": "price",
          "type": "uint256"
        }
      ],
      "name": "NFTListed",
      "type": "event"
    },
    {
      "anonymous": false,
      "inputs": [
        {
          "indexed": true,
          "internalType": "uint256",
          "name": "tokenId",
          "type": "uint256"
        },
        {
          "indexed": false,
          "internalType": "address",
          "name": "buyer",
          "type": "address"
        },
        {
          "indexed": false,
          "internalType": "uint256",
          "name": "price",
          "type": "uint256"
        }
      ],
      "name": "NFTPurchased",
      "type": "event"
    },
    {
      "anonymous": false,
      "inputs": [
        {
          "indexed": true,
          "internalType": "address",
          "name": "previousOwner",
          "type": "address"
        },
        {
          "indexed": true,
          "internalType": "address",
          "name": "newOwner",
          "type": "address"
        }
      ],
      "name": "OwnershipTransferred",
      "type": "event"
    },
    {
      "anonymous": false,
      "inputs": [
        {
          "indexed": true,
          "internalType": "address",
          "name": "from",
          "type": "address"
        },
        {
          "indexed": true,
          "internalType": "address",
          "name": "to",
          "type": "address"
        },
        {
          "indexed": true,
          "internalType": "uint256",
          "name": "tokenId",
          "type": "uint256"
        }
      ],
      "name": "Transfer",
      "type": "event"
    },
    {
      "inputs": [
        {
          "internalType": "address",
          "name": "to",
          "type": "address"
        },
        {
          "internalType": "uint256",
          "name": "tokenId",
          "type": "uint256"
        }
      ],
      "name": "approve",
      "outputs": [],
      "stateMutability": "nonpayable",
      "type": "function"
    },
    {
      "inputs": [
        {
          "internalType": "address",
          "name": "owner",
          "type": "address"
        }
      ],
      "name": "balanceOf",
      "outputs": [
        {
          "internalType": "uint256",
          "name": "",
          "type": "uint256"
        }
      ],
      "stateMutability": "view",
      "type": "function",
      "constant": true
    },
    {
      "inputs": [
        {
          "internalType": "uint256",
          "name": "tokenId",
          "type": "uint256"
        }
      ],
      "name": "getApproved",
      "outputs": [
        {
          "internalType": "address",
          "name": "",
          "type": "address"
        }
      ],
      "stateMutability": "view",
      "type": "function",
      "constant": true
    },
    {
      "inputs": [
        {
          "internalType": "address",
          "name": "owner",
          "type": "address"
        },
        {
          "internalType": "address",
          "name": "operator",
          "type": "address"
        }
      ],
      "name": "isApprovedForAll",
      "outputs": [
        {
          "internalType": "bool",
          "name": "",
          "type": "bool"
        }
      ],
      "stateMutability": "view",
      "type": "function",
      "constant": true
    },
    {
      "inputs": [],
      "name": "name",
      "outputs": [
        {
          "internalType": "string",
          "name": "",
          "type": "string"
        }
      ],
      "stateMutability": "view",
      "type": "function",
      "constant": true
    },
    {
      "inputs": [],
      "name": "owner",
      "outputs": [
        {
          "internalType": "address",
          "name": "",
          "type": "address"
        }
      ],
      "stateMutability": "view",
      "type": "function",
      "constant": true
    },
    {
      "inputs": [
        {
          "internalType": "uint256",
          "name": "tokenId",
          "type": "uint256"
        }
      ],
      "name": "ownerOf",
      "outputs": [
        {
          "internalType": "address",
          "name": "",
          "type": "address"
        }
      ],
      "stateMutability": "view",
      "type": "function",
      "constant": true
    },
    {
      "inputs": [],
      "name": "renounceOwnership",
      "outputs": [],
      "stateMutability": "nonpayable",
      "type": "function"
    },
    {
      "inputs": [
        {
          "internalType": "address",
          "name": "from",
          "type": "address"
        },
        {
          "internalType": "address",
          "name": "to",
          "type": "address"
        },
        {
          "internalType": "uint256",
          "name": "tokenId",
          "type": "uint256"
        }
      ],
      "name": "safeTransferFrom",
      "outputs": [],
      "stateMutability": "nonpayable",
      "type": "function"
    },
    {
      "inputs": [
        {
          "internalType": "address",
          "name": "from",
          "type": "address"
        },
        {
          "internalType": "address",
          "name": "to",
          "type": "address"
        },
        {
          "internalType": "uint256",
          "name": "tokenId",
          "type": "uint256"
        },
        {
          "internalType": "bytes",
          "name": "data",
          "type": "bytes"
        }
      ],
      "name": "safeTransferFrom",
      "outputs": [],
      "stateMutability": "nonpayable",
      "type": "function"
    },
    {
      "inputs": [
        {
          "internalType": "address",
          "name": "operator",
          "type": "address"
        },
        {
          "internalType": "bool",
          "name": "approved",
          "type": "bool"
        }
      ],
      "name": "setApprovalForAll",
      "outputs": [],
      "stateMutability": "nonpayable",
      "type": "function"
    },
    {
      "inputs": [
        {
          "internalType": "bytes4",
          "name": "interfaceId",
          "type": "bytes4"
        }
      ],
      "name": "supportsInterface",
      "outputs": [
        {
          "internalType": "bool",
          "name": "",
          "type": "bool"
        }
      ],
      "stateMutability": "view",
      "type": "function",
      "constant": true
    },
    {
      "inputs": [],
      "name": "symbol",
      "outputs": [
        {
          "internalType": "string",
          "name": "",
          "type": "string"
        }
      ],
      "stateMutability": "view",
      "type": "function",
      "constant": true
    },
    {
      "inputs": [],
      "name": "tokenCounter",
      "outputs": [
        {
          "internalType": "uint256",
          "name": "",
          "type": "uint256"
        }
      ],
      "stateMutability": "view",
      "type": "function",
      "constant": true
    },
    {
      "inputs": [
        {
          "internalType": "uint256",
          "name": "",
          "type": "uint256"
        }
      ],
      "name": "tokenIdToListed",
      "outputs": [
        {
          "internalType": "bool",
          "name": "",
          "type": "bool"
        }
      ],
      "stateMutability": "view",
      "type": "function",
      "constant": true
    },
    {
      "inputs": [
        {
          "internalType": "uint256",
          "name": "",
          "type": "uint256"
        }
      ],
      "name": "tokenIdToPrice",
      "outputs": [
        {
          "internalType": "uint256",
          "name": "",
          "type": "uint256"
        }
      ],
      "stateMutability": "view",
      "type": "function",
      "constant": true
    },
    {
      "inputs": [
        {
          "internalType": "uint256",
          "name": "tokenId",
          "type": "uint256"
        }
      ],
      "name": "tokenURI",
      "outputs": [
        {
          "internalType": "string",
          "name": "",
          "type": "string"
        }
      ],
      "stateMutability": "view",
      "type": "function",
      "constant": true
    },
    {
      "inputs": [
        {
          "internalType": "address",
          "name": "from",
          "type": "address"
        },
        {
          "internalType": "address",
          "name": "to",
          "type": "address"
        },
        {
          "internalType": "uint256",
          "name": "tokenId",
          "type": "uint256"
        }
      ],
      "name": "transferFrom",
      "outputs": [],
      "stateMutability": "nonpayable",
      "type": "function"
    },
    {
      "inputs": [
        {
          "internalType": "address",
          "name": "newOwner",
          "type": "address"
        }
      ],
      "name": "transferOwnership",
      "outputs": [],
      "stateMutability": "nonpayable",
      "type": "function"
    },
    {
      "inputs": [
        {
          "internalType": "string",
          "name": "tokenURI",
          "type": "string"
        },
        {
          "internalType": "uint256",
          "name": "price",
          "type": "uint256"
        }
      ],
      "name": "mintNFT",
      "outputs": [],
      "stateMutability": "nonpayable",
      "type": "function"
    },
    {
      "inputs": [
        {
          "internalType": "uint256",
          "name": "tokenId",
          "type": "uint256"
        }
      ],
      "name": "buyNFT",
      "outputs": [],
      "stateMutability": "payable",
      "type": "function",
      "payable": true
    },
    {
      "inputs": [],
      "name": "getListedNFTs",
      "outputs": [
        {
          "components": [
            {
              "internalType": "uint256",
              "name": "tokenId",
              "type": "uint256"
            },
            {
              "internalType": "uint256",
              "name": "price",
              "type": "uint256"
            },
            {
              "internalType": "string",
              "name": "tokenURI",
              "type": "string"
            }
          ],
          "internalType": "struct Token.TokenInfo[]",
          "name": "",
          "type": "tuple[]"
        }
      ],
      "stateMutability": "view",
      "type": "function",
      "constant": true
    }
  ],
  "bytecode": "0x60806040523480156200001157600080fd5b50604051620036fa380380620036fa833981810160405281019062000037919062000299565b806040518060400160405280600581526020017f546f6b656e0000000000000000000000000000000000000000000000000000008152506040518060400160405280600381526020017f48545400000000000000000000000000000000000000000000000000000000008152508160009081620000b591906200054b565b508060019081620000c791906200054b565b505050600073ffffffffffffffffffffffffffffffffffffffff168173ffffffffffffffffffffffffffffffffffffffff16036200013f5760006040517f1e4fbdf700000000000000000000000000000000000000000000000000000000815260040162000136919062000643565b60405180910390fd5b620001598162000169640100000000026401000000009004565b5060006008819055505062000660565b6000600760009054906101000a900473ffffffffffffffffffffffffffffffffffffffff16905081600760006101000a81548173ffffffffffffffffffffffffffffffffffffffff021916908373ffffffffffffffffffffffffffffffffffffffff1602179055508173ffffffffffffffffffffffffffffffffffffffff168173ffffffffffffffffffffffffffffffffffffffff167f8be0079c531659141344cd1fd0a4f28419497f9722a3daafe3b4186f6b6457e060405160405180910390a35050565b600080fd5b600073ffffffffffffffffffffffffffffffffffffffff82169050919050565b6000620002618262000234565b9050919050565b620002738162000254565b81146200027f57600080fd5b50565b600081519050620002938162000268565b92915050565b600060208284031215620002b257620002b16200022f565b5b6000620002c28482850162000282565b91505092915050565b600081519050919050565b7f4e487b7100000000000000000000000000000000000000000000000000000000600052604160045260246000fd5b7f4e487b7100000000000000000000000000000000000000000000000000000000600052602260045260246000fd5b600060028204905060018216806200034d57607f821691505b60208210810362000363576200036262000305565b5b50919050565b60008190508160005260206000209050919050565b60006020601f8301049050919050565b60008160020a8302905092915050565b600060088302620003d07fffffffffffffffffffffffffffffffffffffffffffffffffffffffffffffffff826200038e565b620003dc86836200038e565b95508019841693508086168417925050509392505050565b6000819050919050565b6000819050919050565b600062000429620004236200041d84620003f4565b620003fe565b620003f4565b9050919050565b6000819050919050565b620004458362000408565b6200045d620004548262000430565b8484546200039e565b825550505050565b600090565b6200047462000465565b620004818184846200043a565b505050565b5b81811015620004a9576200049d6000826200046a565b60018101905062000487565b5050565b601f821115620004f857620004c28162000369565b620004cd846200037e565b81016020851015620004dd578190505b620004f5620004ec856200037e565b83018262000486565b50505b505050565b60008160020a8304905092915050565b60006200052060001984600802620004fd565b1980831691505092915050565b60006200053b83836200050d565b9150826002028217905092915050565b6200055682620002cb565b67ffffffffffffffff811115620005725762000571620002d6565b5b6200057e825462000334565b6200058b828285620004ad565b600060209050601f831160018114620005c35760008415620005ae578287015190505b620005ba85826200052d565b8655506200062a565b601f198416620005d38662000369565b60005b82811015620005fd57848901518255600182019150602085019450602081019050620005d6565b868310156200061d578489015162000619601f8916826200050d565b8355505b6001600288020188555050505b505050505050565b6200063d8162000254565b82525050565b60006020820190506200065a600083018462000632565b92915050565b61308a80620006706000396000f3fe608060405260043610610152576000357c010000000000000000000000000000000000000000000000000000000090048063715018a6116100c8578063b88d4fde1161008c578063b88d4fde14610434578063c87b56dd1461045d578063d082e3811461049a578063e985e9c5146104c5578063f2fde38b14610502578063f4812eb91461052b57610152565b8063715018a6146103615780638da5cb5b1461037857806395d89b41146103a35780639c402c26146103ce578063a22cb4651461040b57610152565b806323b872dd1161011a57806323b872dd1461025057806342842e0e1461027957806351ed8288146102a25780635afa3a72146102be5780636352211e146102e757806370a082311461032457610152565b8063012386f01461015757806301ffc9a71461018257806306fdde03146101bf578063081812fc146101ea578063095ea7b314610227575b600080fd5b34801561016357600080fd5b5061016c610568565b6040516101799190612397565b60405180910390f35b34801561018e57600080fd5b506101a960048036038101906101a49190612425565b6106cd565b6040516101b6919061246d565b60405180910390f35b3480156101cb57600080fd5b506101d461074a565b6040516101e191906124d2565b60405180910390f35b3480156101f657600080fd5b50610211600480360381019061020c9190612520565b6107dc565b60405161021e919061258e565b60405180910390f35b34801561023357600080fd5b5061024e600480360381019061024991906125d5565b6107f8565b005b34801561025c57600080fd5b5061027760048036038101906102729190612615565b61080e565b005b34801561028557600080fd5b506102a0600480360381019061029b9190612615565b610910565b005b6102bc60048036038101906102b79190612520565b610930565b005b3480156102ca57600080fd5b506102e560048036038101906102e0919061279d565b610aaf565b005b3480156102f357600080fd5b5061030e60048036038101906103099190612520565b610b6d565b60405161031b919061258e565b60405180910390f35b34801561033057600080fd5b5061034b600480360381019061034691906127f9565b610b7f565b6040516103589190612835565b60405180910390f35b34801561036d57600080fd5b50610376610c39565b005b34801561038457600080fd5b5061038d610c4d565b60405161039a919061258e565b60405180910390f35b3480156103af57600080fd5b506103b8610c77565b6040516103c591906124d2565b60405180910390f35b3480156103da57600080fd5b506103f560048036038101906103f09190612520565b610d09565b604051610402919061246d565b60405180910390f35b34801561041757600080fd5b50610432600480360381019061042d919061287c565b610d29565b005b34801561044057600080fd5b5061045b6004803603810190610456919061295d565b610d3f565b005b34801561046957600080fd5b50610484600480360381019061047f9190612520565b610d5c565b60405161049191906124d2565b60405180910390f35b3480156104a657600080fd5b506104af610e6f565b6040516104bc9190612835565b60405180910390f35b3480156104d157600080fd5b506104ec60048036038101906104e791906129e0565b610e75565b6040516104f9919061246d565b60405180910390f35b34801561050e57600080fd5b50610529600480360381019061052491906127f9565b610f09565b005b34801561053757600080fd5b50610552600480360381019061054d9190612520565b610f8f565b60405161055f9190612835565b60405180910390f35b60606000805b6008548110156105c057600a600082815260200190815260200160002060009054906101000a900460ff16156105ad5781806105a990612a4f565b9250505b80806105b890612a4f565b91505061056e565b5060008167ffffffffffffffff8111156105dd576105dc612672565b5b60405190808252806020026020018201604052801561061657816020015b6106036121bb565b8152602001906001900390816105fb5790505b5090506000805b6008548110156106c357600a600082815260200190815260200160002060009054906101000a900460ff16156106b05760405180606001604052808281526020016009600084815260200190815260200160002054815260200161068083610d5c565b81525083838151811061069657610695612a97565b5b602002602001018190525081806106ac90612a4f565b9250505b80806106bb90612a4f565b91505061061d565b5081935050505090565b600063490649067c0100000000000000000000000000000000000000000000000000000000027bffffffffffffffffffffffffffffffffffffffffffffffffffffffff1916827bffffffffffffffffffffffffffffffffffffffffffffffffffffffff19161480610743575061074282610fa7565b5b9050919050565b60606000805461075990612af5565b80601f016020809104026020016040519081016040528092919081815260200182805461078590612af5565b80156107d25780601f106107a7576101008083540402835291602001916107d2565b820191906000526020600020905b8154815290600101906020018083116107b557829003601f168201915b5050505050905090565b60006107e782611089565b506107f182611111565b9050919050565b61080a828261080561114e565b611156565b5050565b600073ffffffffffffffffffffffffffffffffffffffff168273ffffffffffffffffffffffffffffffffffffffff16036108805760006040517f64a0ae92000000000000000000000000000000000000000000000000000000008152600401610877919061258e565b60405180910390fd5b6000610894838361088f61114e565b611168565b90508373ffffffffffffffffffffffffffffffffffffffff168173ffffffffffffffffffffffffffffffffffffffff161461090a578382826040517f64283d7b00000000000000000000000000000000000000000000000000000000815260040161090193929190612b26565b60405180910390fd5b50505050565b61092b83838360405180602001604052806000815250610d3f565b505050565b600a600082815260200190815260200160002060009054906101000a900460ff16610990576040517f08c379a000000000000000000000000000000000000000000000000000000000815260040161098790612ba9565b60405180910390fd5b60096000828152602001908152602001600020543410156109e6576040517f08c379a00000000000000000000000000000000000000000000000000000000081526004016109dd90612c15565b60405180910390fd5b60006109f182610b6d565b90506109fe813384611382565b8073ffffffffffffffffffffffffffffffffffffffff166108fc349081150290604051600060405180830381858888f19350505050158015610a44573d6000803e3d6000fd5b506000600a600084815260200190815260200160002060006101000a81548160ff021916908315150217905550817fad546cba5af920bc2c64678bbd69f3d8965ac26d1b82f7ebf6f098aaa83352823334604051610aa3929190612c35565b60405180910390a25050565b610ab76114ef565b610ac333600854611576565b610acf60085483611594565b80600960006008548152602001908152602001600020819055506001600a6000600854815260200190815260200160002060006101000a81548160ff0219169083151502179055506008547fa6cd73580a273eec6c1026108f6b63479fbaef5356dde4ff43e4b38dd187485f82604051610b499190612835565b60405180910390a260086000815480929190610b6490612a4f565b91905055505050565b6000610b7882611089565b9050919050565b60008073ffffffffffffffffffffffffffffffffffffffff168273ffffffffffffffffffffffffffffffffffffffff1603610bf25760006040517f89c62b64000000000000000000000000000000000000000000000000000000008152600401610be9919061258e565b60405180910390fd5b600360008373ffffffffffffffffffffffffffffffffffffffff1673ffffffffffffffffffffffffffffffffffffffff168152602001908152602001600020549050919050565b610c416114ef565b610c4b60006115f0565b565b6000600760009054906101000a900473ffffffffffffffffffffffffffffffffffffffff16905090565b606060018054610c8690612af5565b80601f0160208091040260200160405190810160405280929190818152602001828054610cb290612af5565b8015610cff5780601f10610cd457610100808354040283529160200191610cff565b820191906000526020600020905b815481529060010190602001808311610ce257829003601f168201915b5050505050905090565b600a6020528060005260406000206000915054906101000a900460ff1681565b610d3b610d3461114e565b83836116b6565b5050565b610d4a84848461080e565b610d5684848484611825565b50505050565b6060610d6782611089565b506000600660008481526020019081526020016000208054610d8890612af5565b80601f0160208091040260200160405190810160405280929190818152602001828054610db490612af5565b8015610e015780601f10610dd657610100808354040283529160200191610e01565b820191906000526020600020905b815481529060010190602001808311610de457829003601f168201915b505050505090506000610e12611a14565b90506000815103610e27578192505050610e6a565b600082511115610e5c578082604051602001610e44929190612c9a565b60405160208183030381529060405292505050610e6a565b610e6584611a2b565b925050505b919050565b60085481565b6000600560008473ffffffffffffffffffffffffffffffffffffffff1673ffffffffffffffffffffffffffffffffffffffff16815260200190815260200160002060008373ffffffffffffffffffffffffffffffffffffffff1673ffffffffffffffffffffffffffffffffffffffff16815260200190815260200160002060009054906101000a900460ff16905092915050565b610f116114ef565b600073ffffffffffffffffffffffffffffffffffffffff168173ffffffffffffffffffffffffffffffffffffffff1603610f835760006040517f1e4fbdf7000000000000000000000000000000000000000000000000000000008152600401610f7a919061258e565b60405180910390fd5b610f8c816115f0565b50565b60096020528060005260406000206000915090505481565b60007f80ac58cd000000000000000000000000000000000000000000000000000000007bffffffffffffffffffffffffffffffffffffffffffffffffffffffff1916827bffffffffffffffffffffffffffffffffffffffffffffffffffffffff1916148061107257507f5b5e139f000000000000000000000000000000000000000000000000000000007bffffffffffffffffffffffffffffffffffffffffffffffffffffffff1916827bffffffffffffffffffffffffffffffffffffffffffffffffffffffff1916145b80611082575061108182611a94565b5b9050919050565b60008061109583611afe565b9050600073ffffffffffffffffffffffffffffffffffffffff168173ffffffffffffffffffffffffffffffffffffffff160361110857826040517f7e2732890000000000000000000000000000000000000000000000000000000081526004016110ff9190612835565b60405180910390fd5b80915050919050565b60006004600083815260200190815260200160002060009054906101000a900473ffffffffffffffffffffffffffffffffffffffff169050919050565b600033905090565b6111638383836001611b3b565b505050565b60008061117484611afe565b9050600073ffffffffffffffffffffffffffffffffffffffff168373ffffffffffffffffffffffffffffffffffffffff16146111b6576111b5818486611d00565b5b600073ffffffffffffffffffffffffffffffffffffffff168173ffffffffffffffffffffffffffffffffffffffff1614611247576111f8600085600080611b3b565b6001600360008373ffffffffffffffffffffffffffffffffffffffff1673ffffffffffffffffffffffffffffffffffffffff168152602001908152602001600020600082825403925050819055505b600073ffffffffffffffffffffffffffffffffffffffff168573ffffffffffffffffffffffffffffffffffffffff16146112ca576001600360008773ffffffffffffffffffffffffffffffffffffffff1673ffffffffffffffffffffffffffffffffffffffff168152602001908152602001600020600082825401925050819055505b846002600086815260200190815260200160002060006101000a81548173ffffffffffffffffffffffffffffffffffffffff021916908373ffffffffffffffffffffffffffffffffffffffff160217905550838573ffffffffffffffffffffffffffffffffffffffff168273ffffffffffffffffffffffffffffffffffffffff167fddf252ad1be2c89b69c2b068fc378daa952ba7f163c4a11628f55a4df523b3ef60405160405180910390a4809150509392505050565b600073ffffffffffffffffffffffffffffffffffffffff168273ffffffffffffffffffffffffffffffffffffffff16036113f45760006040517f64a0ae920000000000000000000000000000000000000000000000000000000081526004016113eb919061258e565b60405180910390fd5b600061140283836000611168565b9050600073ffffffffffffffffffffffffffffffffffffffff168173ffffffffffffffffffffffffffffffffffffffff160361147557816040517f7e27328900000000000000000000000000000000000000000000000000000000815260040161146c9190612835565b60405180910390fd5b8373ffffffffffffffffffffffffffffffffffffffff168173ffffffffffffffffffffffffffffffffffffffff16146114e9578382826040517f64283d7b0000000000000000000000000000000000000000000000000000000081526004016114e093929190612b26565b60405180910390fd5b50505050565b6114f761114e565b73ffffffffffffffffffffffffffffffffffffffff16611515610c4d565b73ffffffffffffffffffffffffffffffffffffffff16146115745761153861114e565b6040517f118cdaa700000000000000000000000000000000000000000000000000000000815260040161156b919061258e565b60405180910390fd5b565b611590828260405180602001604052806000815250611dc4565b5050565b806006600084815260200190815260200160002090816115b49190612e70565b507ff8e1a15aba9398e019f0b49df1a4fde98ee17ae345cb5f6b5e2c27f5033e8ce7826040516115e49190612835565b60405180910390a15050565b6000600760009054906101000a900473ffffffffffffffffffffffffffffffffffffffff16905081600760006101000a81548173ffffffffffffffffffffffffffffffffffffffff021916908373ffffffffffffffffffffffffffffffffffffffff1602179055508173ffffffffffffffffffffffffffffffffffffffff168173ffffffffffffffffffffffffffffffffffffffff167f8be0079c531659141344cd1fd0a4f28419497f9722a3daafe3b4186f6b6457e060405160405180910390a35050565b600073ffffffffffffffffffffffffffffffffffffffff168273ffffffffffffffffffffffffffffffffffffffff160361172757816040517f5b08ba1800000000000000000000000000000000000000000000000000000000815260040161171e919061258e565b60405180910390fd5b80600560008573ffffffffffffffffffffffffffffffffffffffff1673ffffffffffffffffffffffffffffffffffffffff16815260200190815260200160002060008473ffffffffffffffffffffffffffffffffffffffff1673ffffffffffffffffffffffffffffffffffffffff16815260200190815260200160002060006101000a81548160ff0219169083151502179055508173ffffffffffffffffffffffffffffffffffffffff168373ffffffffffffffffffffffffffffffffffffffff167f17307eab39ab6107e8899845ad3d59bd9653f200f220920489ca2b5937696c3183604051611818919061246d565b60405180910390a3505050565b60008373ffffffffffffffffffffffffffffffffffffffff163b1115611a0e578273ffffffffffffffffffffffffffffffffffffffff1663150b7a0261186961114e565b8685856040518563ffffffff167c01000000000000000000000000000000000000000000000000000000000281526004016118a79493929190612f97565b6020604051808303816000875af19250505080156118e357506040513d601f19601f820116820180604052508101906118e09190612ff8565b60015b611967573d8060008114611913576040519150601f19603f3d011682016040523d82523d6000602084013e611918565b606091505b50600081510361195f57836040517f64a0ae92000000000000000000000000000000000000000000000000000000008152600401611956919061258e565b60405180910390fd5b805181602001fd5b63150b7a027c0100000000000000000000000000000000000000000000000000000000027bffffffffffffffffffffffffffffffffffffffffffffffffffffffff1916817bffffffffffffffffffffffffffffffffffffffffffffffffffffffff191614611a0c57836040517f64a0ae92000000000000000000000000000000000000000000000000000000008152600401611a03919061258e565b60405180910390fd5b505b50505050565b606060405180602001604052806000815250905090565b6060611a3682611089565b506000611a41611a14565b90506000815111611a615760405180602001604052806000815250611a8c565b80611a6b84611de0565b604051602001611a7c929190612c9a565b6040516020818303038152906040525b915050919050565b60007f01ffc9a7000000000000000000000000000000000000000000000000000000007bffffffffffffffffffffffffffffffffffffffffffffffffffffffff1916827bffffffffffffffffffffffffffffffffffffffffffffffffffffffff1916149050919050565b60006002600083815260200190815260200160002060009054906101000a900473ffffffffffffffffffffffffffffffffffffffff169050919050565b8080611b745750600073ffffffffffffffffffffffffffffffffffffffff168273ffffffffffffffffffffffffffffffffffffffff1614155b15611ca8576000611b8484611089565b9050600073ffffffffffffffffffffffffffffffffffffffff168373ffffffffffffffffffffffffffffffffffffffff1614158015611bef57508273ffffffffffffffffffffffffffffffffffffffff168173ffffffffffffffffffffffffffffffffffffffff1614155b8015611c025750611c008184610e75565b155b15611c4457826040517fa9fbf51f000000000000000000000000000000000000000000000000000000008152600401611c3b919061258e565b60405180910390fd5b8115611ca657838573ffffffffffffffffffffffffffffffffffffffff168273ffffffffffffffffffffffffffffffffffffffff167f8c5be1e5ebec7d5bd14f71427d1e84f3dd0314c0f7b2291e5b200ac8c7c3b92560405160405180910390a45b505b836004600085815260200190815260200160002060006101000a81548173ffffffffffffffffffffffffffffffffffffffff021916908373ffffffffffffffffffffffffffffffffffffffff16021790555050505050565b611d0b838383611eae565b611dbf57600073ffffffffffffffffffffffffffffffffffffffff168373ffffffffffffffffffffffffffffffffffffffff1603611d8057806040517f7e273289000000000000000000000000000000000000000000000000000000008152600401611d779190612835565b60405180910390fd5b81816040517f177e802f000000000000000000000000000000000000000000000000000000008152600401611db6929190612c35565b60405180910390fd5b505050565b611dce8383611f6f565b611ddb6000848484611825565b505050565b606060006001611def84612068565b01905060008167ffffffffffffffff811115611e0e57611e0d612672565b5b6040519080825280601f01601f191660200182016040528015611e405781602001600182028036833780820191505090505b509050600082602001820190505b600115611ea3578080600190039150507f3031323334353637383961626364656600000000000000000000000000000000600a86061a8153600a8581611e9757611e96613025565b5b04945060008503611e4e575b819350505050919050565b60008073ffffffffffffffffffffffffffffffffffffffff168373ffffffffffffffffffffffffffffffffffffffff1614158015611f6657508273ffffffffffffffffffffffffffffffffffffffff168473ffffffffffffffffffffffffffffffffffffffff161480611f275750611f268484610e75565b5b80611f6557508273ffffffffffffffffffffffffffffffffffffffff16611f4d83611111565b73ffffffffffffffffffffffffffffffffffffffff16145b5b90509392505050565b600073ffffffffffffffffffffffffffffffffffffffff168273ffffffffffffffffffffffffffffffffffffffff1603611fe15760006040517f64a0ae92000000000000000000000000000000000000000000000000000000008152600401611fd8919061258e565b60405180910390fd5b6000611fef83836000611168565b9050600073ffffffffffffffffffffffffffffffffffffffff168173ffffffffffffffffffffffffffffffffffffffff16146120635760006040517f73c6ac6e00000000000000000000000000000000000000000000000000000000815260040161205a919061258e565b60405180910390fd5b505050565b600080600090507a184f03e93ff9f4daa797ed6e38ed64bf6a1f01000000000000000083106120c6577a184f03e93ff9f4daa797ed6e38ed64bf6a1f01000000000000000083816120bc576120bb613025565b5b0492506040810190505b6d04ee2d6d415b85acef81000000008310612103576d04ee2d6d415b85acef810000000083816120f9576120f8613025565b5b0492506020810190505b662386f26fc10000831061213257662386f26fc10000838161212857612127613025565b5b0492506010810190505b6305f5e100831061215b576305f5e100838161215157612150613025565b5b0492506008810190505b612710831061218057612710838161217657612175613025565b5b0492506004810190505b606483106121a3576064838161219957612198613025565b5b0492506002810190505b600a83106121b2576001810190505b80915050919050565b60405180606001604052806000815260200160008152602001606081525090565b600081519050919050565b600082825260208201905092915050565b6000819050602082019050919050565b6000819050919050565b61221b81612208565b82525050565b600081519050919050565b600082825260208201905092915050565b60005b8381101561225b578082015181840152602081019050612240565b60008484015250505050565b6000601f19601f8301169050919050565b600061228382612221565b61228d818561222c565b935061229d81856020860161223d565b6122a681612267565b840191505092915050565b60006060830160008301516122c96000860182612212565b5060208301516122dc6020860182612212565b50604083015184820360408601526122f48282612278565b9150508091505092915050565b600061230d83836122b1565b905092915050565b6000602082019050919050565b600061232d826121dc565b61233781856121e7565b935083602082028501612349856121f8565b8060005b8581101561238557848403895281516123668582612301565b945061237183612315565b925060208a0199505060018101905061234d565b50829750879550505050505092915050565b600060208201905081810360008301526123b18184612322565b905092915050565b6000604051905090565b600080fd5b600080fd5b60007fffffffff0000000000000000000000000000000000000000000000000000000082169050919050565b612402816123cd565b811461240d57600080fd5b50565b60008135905061241f816123f9565b92915050565b60006020828403121561243b5761243a6123c3565b5b600061244984828501612410565b91505092915050565b60008115159050919050565b61246781612452565b82525050565b6000602082019050612482600083018461245e565b92915050565b600082825260208201905092915050565b60006124a482612221565b6124ae8185612488565b93506124be81856020860161223d565b6124c781612267565b840191505092915050565b600060208201905081810360008301526124ec8184612499565b905092915050565b6124fd81612208565b811461250857600080fd5b50565b60008135905061251a816124f4565b92915050565b600060208284031215612536576125356123c3565b5b60006125448482850161250b565b91505092915050565b600073ffffffffffffffffffffffffffffffffffffffff82169050919050565b60006125788261254d565b9050919050565b6125888161256d565b82525050565b60006020820190506125a3600083018461257f565b92915050565b6125b28161256d565b81146125bd57600080fd5b50565b6000813590506125cf816125a9565b92915050565b600080604083850312156125ec576125eb6123c3565b5b60006125fa858286016125c0565b925050602061260b8582860161250b565b9150509250929050565b60008060006060848603121561262e5761262d6123c3565b5b600061263c868287016125c0565b935050602061264d868287016125c0565b925050604061265e8682870161250b565b9150509250925092565b600080fd5b600080fd5b7f4e487b7100000000000000000000000000000000000000000000000000000000600052604160045260246000fd5b6126aa82612267565b810181811067ffffffffffffffff821117156126c9576126c8612672565b5b80604052505050565b60006126dc6123b9565b90506126e882826126a1565b919050565b600067ffffffffffffffff82111561270857612707612672565b5b61271182612267565b9050602081019050919050565b82818337600083830152505050565b600061274061273b846126ed565b6126d2565b90508281526020810184848401111561275c5761275b61266d565b5b61276784828561271e565b509392505050565b600082601f83011261278457612783612668565b5b813561279484826020860161272d565b91505092915050565b600080604083850312156127b4576127b36123c3565b5b600083013567ffffffffffffffff8111156127d2576127d16123c8565b5b6127de8582860161276f565b92505060206127ef8582860161250b565b9150509250929050565b60006020828403121561280f5761280e6123c3565b5b600061281d848285016125c0565b91505092915050565b61282f81612208565b82525050565b600060208201905061284a6000830184612826565b92915050565b61285981612452565b811461286457600080fd5b50565b60008135905061287681612850565b92915050565b60008060408385031215612893576128926123c3565b5b60006128a1858286016125c0565b92505060206128b285828601612867565b9150509250929050565b600067ffffffffffffffff8211156128d7576128d6612672565b5b6128e082612267565b9050602081019050919050565b60006129006128fb846128bc565b6126d2565b90508281526020810184848401111561291c5761291b61266d565b5b61292784828561271e565b509392505050565b600082601f83011261294457612943612668565b5b81356129548482602086016128ed565b91505092915050565b60008060008060808587031215612977576129766123c3565b5b6000612985878288016125c0565b9450506020612996878288016125c0565b93505060406129a78782880161250b565b925050606085013567ffffffffffffffff8111156129c8576129c76123c8565b5b6129d48782880161292f565b91505092959194509250565b600080604083850312156129f7576129f66123c3565b5b6000612a05858286016125c0565b9250506020612a16858286016125c0565b9150509250929050565b7f4e487b7100000000000000000000000000000000000000000000000000000000600052601160045260246000fd5b6000612a5a82612208565b91507fffffffffffffffffffffffffffffffffffffffffffffffffffffffffffffffff8203612a8c57612a8b612a20565b5b600182019050919050565b7f4e487b7100000000000000000000000000000000000000000000000000000000600052603260045260246000fd5b7f4e487b7100000000000000000000000000000000000000000000000000000000600052602260045260246000fd5b60006002820490506001821680612b0d57607f821691505b602082108103612b2057612b1f612ac6565b5b50919050565b6000606082019050612b3b600083018661257f565b612b486020830185612826565b612b55604083018461257f565b949350505050565b7f4e4654206973206e6f74206c697374656420666f722073616c65000000000000600082015250565b6000612b93601a83612488565b9150612b9e82612b5d565b602082019050919050565b60006020820190508181036000830152612bc281612b86565b9050919050565b7f496e73756666696369656e742066756e64730000000000000000000000000000600082015250565b6000612bff601283612488565b9150612c0a82612bc9565b602082019050919050565b60006020820190508181036000830152612c2e81612bf2565b9050919050565b6000604082019050612c4a600083018561257f565b612c576020830184612826565b9392505050565b600081905092915050565b6000612c7482612221565b612c7e8185612c5e565b9350612c8e81856020860161223d565b80840191505092915050565b6000612ca68285612c69565b9150612cb28284612c69565b91508190509392505050565b60008190508160005260206000209050919050565b60006020601f8301049050919050565b60008160020a8302905092915050565b600060088302612d237fffffffffffffffffffffffffffffffffffffffffffffffffffffffffffffffff82612ce3565b612d2d8683612ce3565b95508019841693508086168417925050509392505050565b6000819050919050565b6000612d6a612d65612d6084612208565b612d45565b612208565b9050919050565b6000819050919050565b612d8483612d4f565b612d98612d9082612d71565b848454612cf3565b825550505050565b600090565b612dad612da0565b612db8818484612d7b565b505050565b5b81811015612ddc57612dd1600082612da5565b600181019050612dbe565b5050565b601f821115612e2157612df281612cbe565b612dfb84612cd3565b81016020851015612e0a578190505b612e1e612e1685612cd3565b830182612dbd565b50505b505050565b60008160020a8304905092915050565b6000612e4760001984600802612e26565b1980831691505092915050565b6000612e608383612e36565b9150826002028217905092915050565b612e7982612221565b67ffffffffffffffff811115612e9257612e91612672565b5b612e9c8254612af5565b612ea7828285612de0565b600060209050601f831160018114612eda5760008415612ec8578287015190505b612ed28582612e54565b865550612f3a565b601f198416612ee886612cbe565b60005b82811015612f1057848901518255600182019150602085019450602081019050612eeb565b86831015612f2d5784890151612f29601f891682612e36565b8355505b6001600288020188555050505b505050505050565b600081519050919050565b600082825260208201905092915050565b6000612f6982612f42565b612f738185612f4d565b9350612f8381856020860161223d565b612f8c81612267565b840191505092915050565b6000608082019050612fac600083018761257f565b612fb9602083018661257f565b612fc66040830185612826565b8181036060830152612fd88184612f5e565b905095945050505050565b600081519050612ff2816123f9565b92915050565b60006020828403121561300e5761300d6123c3565b5b600061301c84828501612fe3565b91505092915050565b7f4e487b7100000000000000000000000000000000000000000000000000000000600052601260045260246000fdfea2646970667358221220845d4c37d7d0f59fb5b3a7762dc56b4338849e441968db4a0ac8215b43f1163664736f6c63430008140033",
  "immutableReferences": {},
  "source": "// SPDX-License-Identifier: MIT\npragma solidity ^0.8.0;\n\nimport \"@openzeppelin/contracts/token/ERC721/ERC721.sol\";\nimport \"@openzeppelin/contracts/token/ERC721/extensions/ERC721URIStorage.sol\";\nimport \"@openzeppelin/contracts/access/Ownable.sol\";\n\ncontract Token is ERC721URIStorage, Ownable {\n    uint256 public tokenCounter;\n    mapping(uint256 => uint256) public tokenIdToPrice;\n    mapping(uint256 => bool) public tokenIdToListed;\n\n    event NFTListed(uint256 indexed tokenId, uint256 price);\n    event NFTPurchased(uint256 indexed tokenId, address buyer, uint256 price);\n\n    struct TokenInfo {\n        uint256 tokenId;\n        uint256 price;\n        string tokenURI;\n    }\n\n    constructor(\n        address initialOwner\n    ) ERC721(\"Token\", \"HTT\") Ownable(initialOwner) {\n        tokenCounter = 0;\n    }\n\n    // Admin can mint NFTs\n    function mintNFT(string memory tokenURI, uint256 price) public onlyOwner {\n        _safeMint(msg.sender, tokenCounter);\n        _setTokenURI(tokenCounter, tokenURI); // Set the token URI\n        tokenIdToPrice[tokenCounter] = price;\n        tokenIdToListed[tokenCounter] = true;\n        emit NFTListed(tokenCounter, price);\n        tokenCounter++;\n    }\n\n    // Users can buy listed NFTs\n    function buyNFT(uint256 tokenId) public payable {\n        require(tokenIdToListed[tokenId], \"NFT is not listed for sale\");\n        require(msg.value >= tokenIdToPrice[tokenId], \"Insufficient funds\");\n\n        address seller = ownerOf(tokenId);\n        _transfer(seller, msg.sender, tokenId);\n\n        // Transfer funds to the seller\n        payable(seller).transfer(msg.value);\n\n        // Mark the NFT as not listed\n        tokenIdToListed[tokenId] = false;\n\n        emit NFTPurchased(tokenId, msg.sender, msg.value);\n    }\n\n    // Get a list of all NFTs currently listed for sale\n    function getListedNFTs() public view returns (TokenInfo[] memory) {\n        uint256 listedCount = 0;\n\n        // Count the number of listed NFTs\n        for (uint256 i = 0; i < tokenCounter; i++) {\n            if (tokenIdToListed[i]) {\n                listedCount++;\n            }\n        }\n\n        TokenInfo[] memory listedNFTs = new TokenInfo[](listedCount);\n        uint256 index = 0;\n\n        // Populate the array with token info\n        for (uint256 i = 0; i < tokenCounter; i++) {\n            if (tokenIdToListed[i]) {\n                listedNFTs[index] = TokenInfo({\n                    tokenId: i,\n                    price: tokenIdToPrice[i],\n                    tokenURI: tokenURI(i)\n                });\n                index++;\n            }\n        }\n\n        return listedNFTs;\n    }\n}\n",
  "sourcePath": "/Users/thilan/web-dev/humantouched/smart-contract/contracts/Token.sol",
  "compiler": {
    "name": "solc",
    "version": "0.8.20+commit.a1b79de6.Emscripten.clang"
  },
  "schemaVersion": "3.4.16",
  "updatedAt": "2025-02-17T15:39:37.475Z",
  "networkType": "ethereum",
  "devdoc": {
    "errors": {
      "ERC721IncorrectOwner(address,uint256,address)": [
        {
          "details": "Indicates an error related to the ownership over a particular token. Used in transfers.",
          "params": {
            "owner": "Address of the current owner of a token.",
            "sender": "Address whose tokens are being transferred.",
            "tokenId": "Identifier number of a token."
          }
        }
      ],
      "ERC721InsufficientApproval(address,uint256)": [
        {
          "details": "Indicates a failure with the `operator`s approval. Used in transfers.",
          "params": {
            "operator": "Address that may be allowed to operate on tokens without being their owner.",
            "tokenId": "Identifier number of a token."
          }
        }
      ],
      "ERC721InvalidApprover(address)": [
        {
          "details": "Indicates a failure with the `approver` of a token to be approved. Used in approvals.",
          "params": {
            "approver": "Address initiating an approval operation."
          }
        }
      ],
      "ERC721InvalidOperator(address)": [
        {
          "details": "Indicates a failure with the `operator` to be approved. Used in approvals.",
          "params": {
            "operator": "Address that may be allowed to operate on tokens without being their owner."
          }
        }
      ],
      "ERC721InvalidOwner(address)": [
        {
          "details": "Indicates that an address can't be an owner. For example, `address(0)` is a forbidden owner in EIP-20. Used in balance queries.",
          "params": {
            "owner": "Address of the current owner of a token."
          }
        }
      ],
      "ERC721InvalidReceiver(address)": [
        {
          "details": "Indicates a failure with the token `receiver`. Used in transfers.",
          "params": {
            "receiver": "Address to which tokens are being transferred."
          }
        }
      ],
      "ERC721InvalidSender(address)": [
        {
          "details": "Indicates a failure with the token `sender`. Used in transfers.",
          "params": {
            "sender": "Address whose tokens are being transferred."
          }
        }
      ],
      "ERC721NonexistentToken(uint256)": [
        {
          "details": "Indicates a `tokenId` whose `owner` is the zero address.",
          "params": {
            "tokenId": "Identifier number of a token."
          }
        }
      ],
      "OwnableInvalidOwner(address)": [
        {
          "details": "The owner is not a valid owner account. (eg. `address(0)`)"
        }
      ],
      "OwnableUnauthorizedAccount(address)": [
        {
          "details": "The caller account is not authorized to perform an operation."
        }
      ]
    },
    "events": {
      "Approval(address,address,uint256)": {
        "details": "Emitted when `owner` enables `approved` to manage the `tokenId` token."
      },
      "ApprovalForAll(address,address,bool)": {
        "details": "Emitted when `owner` enables or disables (`approved`) `operator` to manage all of its assets."
      },
      "BatchMetadataUpdate(uint256,uint256)": {
        "details": "This event emits when the metadata of a range of tokens is changed. So that the third-party platforms such as NFT market could timely update the images and related attributes of the NFTs."
      },
      "MetadataUpdate(uint256)": {
        "details": "This event emits when the metadata of a token is changed. So that the third-party platforms such as NFT market could timely update the images and related attributes of the NFT."
      },
      "Transfer(address,address,uint256)": {
        "details": "Emitted when `tokenId` token is transferred from `from` to `to`."
      }
    },
    "kind": "dev",
    "methods": {
      "approve(address,uint256)": {
        "details": "See {IERC721-approve}."
      },
      "balanceOf(address)": {
        "details": "See {IERC721-balanceOf}."
      },
      "getApproved(uint256)": {
        "details": "See {IERC721-getApproved}."
      },
      "isApprovedForAll(address,address)": {
        "details": "See {IERC721-isApprovedForAll}."
      },
      "name()": {
        "details": "See {IERC721Metadata-name}."
      },
      "owner()": {
        "details": "Returns the address of the current owner."
      },
      "ownerOf(uint256)": {
        "details": "See {IERC721-ownerOf}."
      },
      "renounceOwnership()": {
        "details": "Leaves the contract without owner. It will not be possible to call `onlyOwner` functions. Can only be called by the current owner. NOTE: Renouncing ownership will leave the contract without an owner, thereby disabling any functionality that is only available to the owner."
      },
      "safeTransferFrom(address,address,uint256)": {
        "details": "See {IERC721-safeTransferFrom}."
      },
      "safeTransferFrom(address,address,uint256,bytes)": {
        "details": "See {IERC721-safeTransferFrom}."
      },
      "setApprovalForAll(address,bool)": {
        "details": "See {IERC721-setApprovalForAll}."
      },
      "supportsInterface(bytes4)": {
        "details": "See {IERC165-supportsInterface}"
      },
      "symbol()": {
        "details": "See {IERC721Metadata-symbol}."
      },
      "tokenURI(uint256)": {
        "details": "See {IERC721Metadata-tokenURI}."
      },
      "transferFrom(address,address,uint256)": {
        "details": "See {IERC721-transferFrom}."
      },
      "transferOwnership(address)": {
        "details": "Transfers ownership of the contract to a new account (`newOwner`). Can only be called by the current owner."
      }
    },
    "version": 1
  },
  "userdoc": {
    "kind": "user",
    "methods": {},
    "version": 1
  }
}